:020000040800F2
:10000000B80600206D01000875010008770100089E
:10001000790100087B0100087D0100080000000054
:100020000000000000000000000000007F01000848
:10003000810100080000000083010008D5040008C9
:100040008701000887010008870100088701000870
:100050008701000887010008870100088701000860
:100060008701000887010008870100088701000850
:100070008701000887010008870100088701000840
:100080008701000887010008870100088701000830
:100090008701000887010008870100088701000820
:1000A0008701000887010008870100088701000810
:1000B0008701000887010008870100088701000800
:1000C00087010008870100088701000887010008F0
:1000D00087010008870100088701000887010008E0
:1000E00087010008870100088701000800F002F876
:1000F00000F02CF80AA090E8000C82448344AAF196
:100100000107DA4501D100F021F8AFF2090EBAE893
:100110000F0013F0010F18BFFB1A43F0010318473B
:100120007804000088040000002300240025002635
:10013000103A28BF78C1FBD8520728BF30C148BF4A
:100140000B6070471FB51FBD10B510BD00F031F832
:100150001146FFF7F7FF00F00DFA00F04FF803B477
:10016000FFF7F2FF03BC00F057F800000948804792
:1001700009480047FEE7FEE7FEE7FEE7FEE7FEE789
:10018000FEE7FEE7FEE7FEE704480549054A064BA1
:10019000704700001D050008ED000008B8000020B1
:1001A000B8060020B8020020B8020020704770474F
:1001B0007047754600F02CF8AE4605006946534678
:1001C00020F00700854618B020B5FFF7DDFFBDE839
:1001D00020404FF000064FF000074FF000084FF0AE
:1001E000000BAC46ACE8C009ACE8C009ACE8C009FB
:1001F000ACE8C00921F007018D46704710B50446F0
:10020000AFF300802046BDE81040FFF7A8BF000014
:10021000004870470000002001491820ABBEFEE7EF
:1002200026000200704700000420C4F201000168AB
:1002300041F08061016070470D2818BF704701F0E0
:10024000010040F26001C2F2000108707047000036
:1002500081B08DF803009DF80300010140F26800B1
:10026000C2F200004158B1B19DF80310002209010B
:1002700042509DF8031000EB01114A609DF80310F5
:1002800000EB01118A609DF8031000EB0110C260C1
:10029000012001B0704740F26100C2F2000002216B
:1002A0000170002001B0704770B540F26800C2F2E2
:1002B000000000F10C040025002604E00136052EA4
:1002C00004F110040ED020680028F7D054F80C0C6C
:1002D0008047256054F8040C0028EFD1F0B2FFF7F6
:1002E000B7FFEBE700F01CF870BD000010B500246C
:1002F000E0B2FFF7ADFF042C04F10104F8D340F2A3
:100300006100C2F200000021017040F26200C2F2FE
:100310000000018040F26400C2F20000017010BDD4
:1003200080B540F26200C2F20000018819B1018874
:10033000013901800FE040F26101C2F20001097849
:1003400029B141F2883101800D20002101E00D200A
:100350000121FFF771FF40F26400C2F20000017852
:10036000002940F26101C2F2000105D001220A70A9
:1003700040F26401C2F2000100220A7001780029F3
:10038000FCD00021017080BD80B5012000F0A6F8EE
:1003900080BD000040F268010020C2F200014FF071
:1003A000010C02E01030502810D00B58002BF9D06F
:1003B0000B185A681AB9C3F80CC09A685A605A6880
:1003C000002AEFD05A68013A5A60EBE740F2640025
:1003D000C2F20000012101707047000082B001905C
:1003E0000198411E019178B1FF2000BF8DF80300F4
:1003F0009DF803104A1E00298DF80320F8D10199B9
:100400004A1E00290192F1D102B0704780B500F078
:1004100001F880BD82B041F204000021C4F2020064
:100420000191009150F8041C41F4803140F8041C03
:1004300050F8041C01F4003100910199013101913F
:10044000009919B90199B1F5A06FF1D150F8041CC8
:10045000890354BF0021012100910099012936D15F
:1004600042F20001C4F202010A6842F010020A607E
:100470000A6822F003020A600A6842F002020A6077
:100480000168016001680160016841F480610160F8
:10049000016821F47C110160016841F4E8110160F8
:1004A00050F8041C41F0807140F8041C50F8041C02
:1004B0008901FBD5016821F003010160016841F069
:1004C00002010160016801F00C010829FAD102B0B3
:1004D0007047000080B5FFF75DFF80BD82B00190DE
:1004E000019840F2654148434FF0FF3101EB801025
:1004F000009000990020B0EB116F0CD14EF210016A
:10050000CEF200010860886000984860086840F0FA
:1005100007000860012002B07047000080B541F27A
:100520000000C4F202000168002241F001010160F4
:100530004168CFF6FF021140416001684FF6FF723B
:10054000CFF6F66211400160016821F4802101605C
:10055000416821F4FE0141604FF41F018160FFF703
:1005600055FF4EF60850CEF200004FF000610160DA
:1005700080BD0000FFF7BAFEFFF756FE4FF4FA7099
:10058000FFF72CFF4FF4FA70FFF728FFFFF7FCFE90
:10059000FFF78AFEFCE70000A80500080000002025
:0805A000B80600002801000864
:040000050800016D81
:00000001FF
