:020000040800F2
:10000000900700206D0100087501000877010008C5
:10001000790100087B0100087D0100080000000054
:100020000000000000000000000000007F01000848
:10003000810100080000000083010008C90E0008CB
:100040008701000887010008870100088701000870
:100050008701000887010008870100088701000860
:100060008701000887010008870100088701000850
:100070008701000887010008870100088701000840
:100080008701000887010008870100088701000830
:100090008701000887010008870100088701000820
:1000A0008701000887010008870100088701000810
:1000B0008701000887010008870100088701000800
:1000C00087010008870100088701000887010008F0
:1000D00087010008870100088701000887010008E0
:1000E00087010008870100088701000800F002F876
:1000F00000F02CF80AA090E8000C82448344AAF196
:100100000107DA4501D100F021F8AFF2090EBAE893
:100110000F0013F0010F18BFFB1A43F0010318473B
:10012000F00E0000000F0000002300240025002630
:10013000103A28BF78C1FBD8520728BF30C148BF4A
:100140000B6070471FB51FBD10B510BD00F031F832
:100150001146FFF7F7FF00F0E7FE00F04FF803B499
:10016000FFF7F2FF03BC00F057F800000948804792
:1001700009480047FEE7FEE7FEE7FEE7FEE7FEE789
:10018000FEE7FEE7FEE7FEE704480549054A064BA1
:1001900070470000D10E0008ED000008900100201B
:1001A00090070020900300209003002070477047C4
:1001B0007047754600F02CF8AE4605006946534678
:1001C00020F00700854618B020B5FFF7DDFFBDE839
:1001D00020404FF000064FF000074FF000084FF0AE
:1001E000000BAC46ACE8C009ACE8C009ACE8C009FB
:1001F000ACE8C00921F007018D46704710B50446F0
:10020000AFF300802046BDE81040FFF7A8BF000014
:10021000004870470000002001491820ABBEFEE7EF
:1002200026000200704700000420C4F201000168AB
:1002300041F080610160704741F20403C0F60003A1
:1002400053F820006FF01F0303EB8103082934BF2C
:100250008B000430D0F800C00F21994002F00F024B
:100260002CEA01019A4011430160704741F20403F6
:10027000C0F6000353F820000123D0F80CC08B40D7
:1002800002F001022CEA030302FA01F11943C160F2
:100290007047000010B540F2660C00EB4003C2F25C
:1002A000000C0CEB430E00244CF81340AEF8044055
:1002B00000F042F810BD000048F21F53C5F2EB13E6
:1002C00040F2660CA2FB032300EB4000C2F2000CDC
:1002D0000CEB40020CF810105809508070470000D9
:1002E00080B5C0B240F2660200EB4001C2F20002EB
:1002F00002EB41010A4632F8043F13B1013B13807F
:100300000FE0B1F802E0BEF1000F08D091F800C094
:100310004B78A2F800E083EA0C034B7001E0002266
:100320004A704A780978B2FA82F25209114081F093
:10033000010100F017F880BD80B540F2600C00EBC1
:100340004000C2F2000C0CEB00030CF8001000217E
:100350005A7099701CF8000059780322FFF76CFF5F
:1003600080BD000080B540F2600200EB4000C2F2A8
:10037000000213189970105C59789A78FFF776FF8D
:1003800080BD000040F27E0100EB8000C2F200015F
:1003900001EB0010002180F84F10C0F84B10C0F89E
:1003A0004710C0F84310C0F83F10C0F83B10C0F829
:1003B0003710704740F27E0100EB8000C2F200016E
:1003C00001EB0010002180F83610C0F83210C0F8A0
:1003D0002E10C0F82A10C0F82610C0F82210C0F85D
:1003E0001E1070472DE9F04F85B00F4640F27E0198
:1003F000044600EB8000C2F200011646DDF840A082
:10040000DDE90E8B01EB00150001002299460A542C
:100410006A802A71681D6FF004014FF0F03200BF4E
:10042000431805311429C3F80520F9D1002068725A
:100430000120A8730220E87403202876042068773E
:100440002046FFF7B7FF2046FFF79CFF3946119F74
:10045000204632464B46CDE9008BCDF808A00397E5
:1004600000F070F9687800EB80002844411D2046B8
:1004700000F0F6F9204600F061FA05B0BDE8F08F13
:100480002DE9F04381B0C4B240F27E0C04EB84014C
:10049000C2F2000C0CEB0116B14619F8022F042A27
:1004A00000F28E80DFE802F003131E284900F07886
:1004B0000130F070C0B200EB80003044411D204696
:1004C00000F0CEF9204600F039FA012089E0F078FA
:1004D00000EB8000304400F11E01204600F042FA9B
:1004E00002207EE0204600F0B3F8002868D02046C5
:1004F00000F014FA032074E0374617F8040F0130B7
:100500003870204600F08EF800285CD0B04618F80D
:10051000030F00EB8000304400F13701204600F06B
:10052000D7F9204600F018FA98F8001000200429A6
:10053000387056D188F8000052E0002206F11E0300
:10054000B71897F83700053200EB8005585597F833
:10055000370097F8385000EB80001844457097F842
:10056000370097F8395000EB80001844857097F8F1
:10057000370097F83A5000EB80001844C57097F8A0
:10058000370097F83B7000EB80001844192A077178
:10059000D6D109011CF80130002289F8002093F01F
:1005A000010220460CF8012006D001210022FFF7AD
:1005B00083FE01B0BDE8F08300210022FFF77CFE3E
:1005C00001B0BDE8F08338780F28F9D1204600F05B
:1005D000C3F916F8031F00200429387001D13070C8
:1005E000042089F8000001B0BDE8F08340F2CE029B
:1005F00000EB8000C2F2000202EB80004170704705
:1006000080B50A46002940F2720100EB4000C2F2B8
:10061000000101EB80018878C97818BF0122FFF73B
:1006200025FE80BD10B50721044600F033F94006D1
:100630005CBF002010BD2046072100F02BF940F0E0
:1006400040022046072100F0BDF9012010BD000046
:10065000B0B50721044600F01DF9054620460721E4
:1006600000F018F9A90627D4C0065CBF0020B0BD71
:100670002046072100F00EF940F010022046072125
:1006800000F0A0F940F2720104EB4400C2F2000154
:1006900001EB8000C07AE32100F002FC204601213A
:1006A000FFF7AEFF0F2000F0AFFA20460021002434
:1006B000FFF7A6FF2046B0BD40F0200220460721EC
:1006C00000F080F90120B0BD80B50A46002940F253
:1006D000720100EB4000C2F2000101EB80010879D9
:1006E000497918BF0122FFF7C1FD80BD10B5002177
:1006F0000446FFF7E9FF40F2720104EB4400C2F246
:10070000000101EB8000C07AE22100F0C9FB204625
:100710000121FFF7D9FF10BD10B500210446FFF7F6
:10072000D3FF40F2720104EB4400C2F2000101EB7E
:100730008000C07AE12100F0B3FB20460121FFF7E1
:10074000C3FF10BD2DE9F041044640F27205DDE91A
:10075000067004EB4406C2F2000505EB8606DDE9EF
:1007600008EC06F8060F06F8041C06F8032C06F839
:10077000017C3746B04608461146032206F8023C83
:1007800007F801EF08F805CFFFF756FD16F8020C41
:1007900016F8011C0322FFF74FFD3D78281DA842E3
:1007A0000AD900BF307829460B22FFF745FD38787B
:1007B000013504308542F5D398F8000000F060FB65
:1007C00020460021FFF71CFF20460121FFF77CFF98
:1007D000204600217C2200F0F5F82046012100226D
:1007E00000F0F0F820460321032200F0EBF8204649
:1007F0000421FF2200F0E6F820460521002200F047
:10080000E1F82046062100F045F800F0D70000F19D
:1008100020022046062100F0D5F82046062100F0EF
:1008200039F800F0F800821D2046062100F0CAF8D1
:1008300020461D21002200F0C5F820461C21002280
:1008400000F0C0F820460721702200F0BBF82046D7
:10085000FFF762FF2046FFF749FFBDE8F081000087
:10086000B0B50C4602210122054600F0ABF828463F
:1008700010212246052300F0C7F828460A21224607
:10088000052300F0C1F828461121052200F09AF84E
:10089000B0BD000070B50C4600210546FFF714FFFF
:1008A00040F2720105EB4500C2F2000101EB800647
:1008B000F07A04F01F0100F0F3FAF07AFF2100F063
:1008C000EFFA044628460121FFF7FEFE204670BDE0
:1008D000F0B581B00D4600210446FFF7F5FE40F269
:1008E000720104EB4400C2F2000101EB800616F82D
:1008F0000B0F612100F0D4FA013D05273078FF216C
:10090000013F00F0CDFA390605F8010FF6D1204677
:100910000121FFF7D9FE01B0F0BD000010B50021A4
:100920000446FFF7B7FF40F003022046002100F025
:1009300049F820460121FFF763FE10BD10B50021E4
:100940000446FFF7A7FF00F0FC00821C20460021B0
:1009500000F038F810BD000080B50021FFF750FE10
:1009600080BD0000F0B581B00D4600210446FFF7C0
:10097000ABFE40F2720104EB4400C2F2000101EB55
:10098000800616F80B0FA02100F08AFA013D05271A
:10099000307815F8011F013F00F082FA3806F7D1D0
:1009A00020460121FFF790FE20460121FFF728FE97
:1009B0000F2000F029F920460021FFF721FE01B0A9
:1009C000F0BD0000F0B581B00D460021144606468A
:1009D000FFF77AFE40F2720106EB4600C2F2000118
:1009E00001EB80070121F87A61F35F15294600F0D9
:1009F00057FAF87A214600F053FA30460121FFF702
:100A000063FE01B0F0BD00002DE9F0410F4600216A
:100A10001D4690460446FFF757FE40F2720104EB74
:100A20004400C2F2000101EB8006012116F80B0F11
:100A300061F35F17394600F033FA5DB105EB08004A
:100A4000471E00BF307817F80119013D00F028FA61
:100A50002806F7D120460121FFF736FEBDE8F081D8
:100A600040F6FF30C4F20100814220DD42F2FF7007
:100A7000C4F2010081423ADC40F60040C4F20100B9
:100A8000814262D041F20000C4F20100814265D08F
:100A900042F20040C4F20100814270D141F21800DC
:100AA000C4F20200016841F400710160704743F232
:100AB000FF70C4F20000814235DD43F60000C4F24D
:100AC0000000814253D00020C4F20100814257D07F
:100AD00040F60000C4F20100814250D141F21800FA
:100AE000C4F20200016841F004010160704742F65F
:100AF0000000C4F2010081424BD042F60040C4F233
:100B0000010081424ED043F20000C4F20100814254
:100B100018BF704741F21800C4F20200016841F4A6
:100B2000805101607047B1F1804F44D040F20040E5
:100B3000C4F20000814222D141F21800C4F2020046
:100B4000416841F002014160704741F21800C4F26F
:100B50000200016841F008010160704741F218008D
:100B6000C4F20200016841F010010160704741F2D7
:100B70001800C4F20200416841F4804141607047AE
:100B800041F21800C4F20200016841F00101016065
:100B9000704741F21800C4F20200016841F480611C
:100BA0000160704741F21800C4F20200016841F48C
:100BB00000610160704741F21800C4F20200416810
:100BC00041F0010141607047B0B540F2E40EC2F25D
:100BD000000E84460020744625682DB10130082897
:100BE00004F11404F8D10820082804BF0820B0BD7F
:100BF00000EB80040EEB84054EF824C069600021F0
:100C0000AA60EB602961B0BD82B001900198411EDD
:100C1000019178B1482000BF8DF803009DF80310C2
:100C20004A1E00298DF80320F8D101994A1E002997
:100C30000192F1D102B0704740F2E40200EB800172
:100C4000C2F2000252F8210000284FF0000008BF55
:100C5000704702EB8101086048608860C8600861E5
:100C60000120704770B540F2E400C2F2000000F1CC
:100C700010050026002404E00134082C05F11405B9
:100C800010D028680028F7D055F8101C55F80C0C27
:100C900088472E6055F8040C0028EDD12046FFF758
:100CA000CBFFE9E700F04EF800F00CF870BD000053
:100CB00080B5B0FA80F0410901200022FFF7FCFA6C
:100CC00080BD000010B540F2E404C2F20004D4F884
:100CD000A400012804BF0020C4F8A400D4F8A40094
:100CE00030B900BF00F040F8D4F8A4000028F9D0D3
:100CF0000020C4F8A40010BD10B500242046FFF762
:100D00009BFF0134082CF9D140F2E400C2F200004C
:100D10000021C0F8A010C0F8A41010BD40F2654139
:100D200048434FF0FF3101EB80104EF21001CEF23C
:100D3000000100220A608A604860086840F00700ED
:100D40000860704780B540F2E400C2F20000D0F8BD
:100D5000A410012904BF0121C0F8A010D0F8A00000
:100D6000FFF7A6FF80BD00007047000080B501209E
:100D7000FFF7D4FF80BD000040F2E4000021C2F282
:100D800000004FF0010C02E01431A02910D04358AC
:100D9000002BF9D043189A681AB9C3F810C0DA6862
:100DA0009A609A68002AEFD09A68013A9A60EBE755
:100DB0000121C0F8A410704780B500F001F880BD93
:100DC00082B041F204000021C4F2020001910091BE
:100DD00050F8041C41F4803140F8041C50F8041C05
:100DE00001F400310091019901310191009919B983
:100DF0000199B1F5A06FF1D150F8041C890354BFDB
:100E00000021012100910099012936D142F200010F
:100E1000C4F202010A6842F010020A600A6822F075
:100E200003020A600A6842F002020A600168016077
:100E300001680160016841F480610160016821F48A
:100E40007C110160016841F4E811016050F8041C54
:100E500041F0807140F8041C50F8041C8901FBD556
:100E6000016821F003010160016841F002010160A5
:100E7000016801F00C010829FAD102B070470000A6
:100E800040F6FC71C0F6000151F82000818841F065
:100E900004018180018841F41D71018070470000C8
:100EA00040F6FC72C0F6000252F820000289920758
:100EB000FCD581810189C907FCD08189028912068C
:100EC000FCD4C8B27047000080B5FFF755FF80BD65
:100ED00080B541F20000C4F202000168002241F036
:100EE000010101604168CFF6FF02114041600168D5
:100EF0004FF6FF72CFF6F66211400160016821F4EF
:100F000080210160416821F4FE0141604FF41F011E
:100F10008160FFF751FF4EF60850CEF200004FF00F
:100F20000061016080BD000000F000F884B043F66D
:100F30000004C4F2000404F548410020FFF790FDCE
:100F400004F550410020FFF78BFD04F554410020CB
:100F5000FFF786FD04F558410020FFF781FD0020D2
:100F60002146FFF77DFD0020FFF75EF94FF47A7010
:100F7000FFF74AFE002002210E22FFF78BF9012025
:100F800002210D220124FFF785F900200021FFF73F
:100F90002DFB0C200821CDE9001402900020002137
:100FA000092200230394FFF71DFA4FF47A70FFF72C
:100FB0002BFEFFF7A1FE40F2E124C0F6000420461C
:100FC00000214FF47A720123FFF7FEFD2046012134
:100FD0004FF47A720123FFF7F7FD40F28140C0F62B
:100FE000000000214FF47A720123FFF7EDFDFFF7B7
:100FF000BDFE00BFFFF736FEFCE7000000300140F9
:101000000038004000080140000C01400010014081
:1010100020100008000000209007000028010008B0
:040000050800016D81
:00000001FF
